:020000040000FA
:0400000080313828EB
:100008007E1480318B1E09280A2812280B1D0D2802
:100018000E2812288531E525803136280B1F152832
:10002800162836282100111E1A281B2826282000E9
:10003800111E1F282028262843088A0042080A0083
:10004800803136282100911E2A282B2836282000A6
:10005800911E2F283028362841088A0040080A00B7
:10006800803136287E10090080313A288631F326FF
:100078008031EE00FB01FC01203084000030850057
:10008800433086317A268031A030840000308500E4
:10009800083086317A2680317E1020008431512C38
:1000A80020005303031D59285A2848295108031DC5
:1000B8005E285F2848290830CF0048298631432622
:1000C8008031003A031969286A287129143085316A
:1000D800F52580312000D301D30ACF01CF0A712939
:1000E800863143268031003A03197B287C28712900
:1000F8008531BF258031013A031D8328842888284B
:1001080002302000CF00712908302000CF0071296B
:10011800863143268031003A03199328942871299F
:1001280084312B248031553A031D9B289C2888282C
:1001380003302000CF007129863143268031003AF0
:100148000319A728A828712984312B24803120007D
:10015800D6005608853133258031003A031DB5286D
:10016800B628B7288828F101F10A200056088231FC
:10017800EF2280312000E0006003031DC428C52859
:10018800D0280230F10056088231EF228031200059
:10019800E1000430CF0071298631B3268031063062
:1001A8002000CF007129863143268031003A031997
:1001B800DE28DF28712984312B2480312100A80012
:1001C80020004E08573E860087012100280881003C
:1001D8000130A80028082000CE0761084E02031C41
:1001E800F628F7287129CE010530CF00712986310C
:1001F80043268031003A03190229032971298431E1
:100208002B2480312000DF005608F1005730F2001F
:1002180061088331D023803120005F060319152936
:100228001629172988280730CF0071292000560879
:1002380082318422803107302000CF002000470817
:100248008A0046080A0081318631A42680312000C0
:10025800CE01D3010030F100F2000D30F300003080
:10026800F400563085311925803123009E1C3D2924
:100278003E2944298631AE2680312000CF017129DC
:1002880009302000CF0071294F082100A800A901DA
:100298002908003A0319512971292808003A031935
:1002A8006228013A03197428033A03198C28013A81
:1002B8000319A028073A0319D728013A0319FB287C
:1002C800033A03191A29013A031922290F3A031983
:1002D8002829013A03193929712908006430843121
:1002E800E22481312000EC00BC2924306406031D7F
:1002F8007E297F29AD29E51B822983298729651F46
:10030800862987298A29D515D4158C29D511D41180
:10031800661F8F2990299B2907306805E30007305D
:100328006306031D982999299B29D4149C29D41064
:10033800E91E9F29A029AB2907306805E30007308B
:100348006306031DA829A929AB295414E3295410CD
:10035800E329661DB029B129C12907306805E300E2
:1003680007306306031DB929BA29C129D401E32935
:100378006C08013A03197929BA29E3298631DE265E
:10038800813186315C268131FD298631DE26813135
:10039800863164268131FD298631DB26813186311B
:1003A8006C268131FD298631DB268131C5298631CC
:1003B800DB268131CC298631DE268131D3295408C8
:1003C800003A0319DF29013A0319C229033A03192C
:1003D800C929013A0319C9290B3A0319D029013A45
:1003E8000319D729033A0319DB29013A0319DB2931
:1003F800DF290800F2007208F300F318042A062A1D
:100408000130072A0030F10073180B2A0D2A013039
:100418000E2A00307106031D122A142A7317152A92
:1004280073137319182A1A2A01301B2A0030F10095
:10043800731B1F2A212A0130222A00307106031D4E
:10044800262A282A7317292A7313731A2C2A2E2A64
:1004580001302F2A0030F100731B332A352A01306E
:10046800362A00307106031D3A2A3C2A73173D2AA2
:100478007313F319402A422A0130432A0030F1004D
:10048800F318472A492A01304A2A00307106031D09
:100498004E2A502AF317512AF313731A542A562A4C
:1004A8000130572A0030F100F31B5B2A5D2A013026
:1004B8005E2A00307106031D622A642AF317652A32
:1004C800F313F31A682A6A2A01306B2A0030F10004
:1004D800F31B6F2A712A0130722A00307106031D3E
:1004E800762A782AF317792AF3130310F31F0314D3
:1004F80003187F2A812AF317822AF3137308080046
:100508002000EA004508ED004408EC003F30E60012
:100518006608EA05EB01A32A6C0884006D088500CB
:1005280000086A06031D992A9A2A9B2AA92A0430D8
:10053800EC070030ED3D0130E6006608EB07520895
:100548006B02031CA82AA92A902A6D08E7006C08E8
:10055800E60001306607840067080318670A85000B
:100568000008E0006D08E7006C08E6000230660746
:10057800840067080318670A85000008E1006D0811
:10058800E7006C08E6000330660784006708031874
:10059800670A85000008F1006108E800E9016808B9
:1005A800F2006908F3005730843176248231200044
:1005B8005608F1005730F20061088331D0238231A8
:1005C8002000DF005608F9005730FA00610884312E
:1005D8009B2482310800F40020004508F7004408F5
:1005E800F6003F30F2007208F405F5011E2B76087C
:1005F80084007708850000087406031D042B052B6A
:10060800062B452B0430F6070030F73D5208FF3E15
:10061800F200FF3003180030F30075087206730407
:10062800031D172B182B1A2B0230582B0130F20000
:100638007208F50752087502031C232B242BFB2A8A
:10064800452B76088400770885000008582B770822
:10065800F3007608F200013072078400730803186B
:10066800730A85000008582B7708F3007608F20013
:1006780002307207840073080318730A85000008A3
:10068800582B7108F200F3017308003A03194D2B37
:10069800182B7208003A0319252B013A03192B2B42
:1006A800033A0319382B182B0800210091129730B0
:1006B800F1000330F20086318C26833121001112BB
:1006C800C030F1000430F2008631862683310930CB
:1006D80023009F0090309D0024309E00FF309B0037
:1006E80002309C00F830F1000630F200863198267E
:1006F8008331D330F1000630F200863192268331FF
:10070800D730F1000630F20086319E268331200072
:10071800C801CC01CB010830CA00FC01FB01C901AA
:100728002100911608007C08203E8600870181017F
:1007380023001D1DA02BA12BAC2B7C08203E86007E
:100748008701811420003D088A003C080A00833193
:1007580023009D1CB02BB12BBC2B7C08203E8600AF
:100768008701011520003B088A003A080A008331F6
:100778007C08203E8600870101080319C42BC52B7D
:10078800CC2B200039088A0038080A008331CF2B87
:100798008531662583310800F5007108F300F401FE
:1007A8007308F7007408F800F601F92B7208860040
:1007B800870101087707F70078080318780AF80016
:1007C8000130F3007308F207013078020030031992
:1007D8007702031CF02BF12BF52BFF30F7020030CA
:1007E800F83B0130F3007308F60775087602031C1E
:1007F800FE2BFF2BDA2BF709F80977080800F2001F
:1008080020004A080319092C0A2C042C2100111A6B
:100818000E2C0F2C132C720823009A00282C11126E
:1008280020004C08303E86008701720881000130A4
:10083800F1007108CC0708304C02031C242C252C2D
:10084800262CCC010130CA02210011160800200014
:1008580049080319302C312C2B2C7B08203E8600AC
:1008680087010108C8007B08283E86008701010827
:10087800F2000130F1007108FB0708307B02031C0D
:10088800462C472C482CFB012100911201302000F6
:10089800C902210091167208080085314D2584315E
:1008A8008631CF26843120008E1F5B2C5C2C612C76
:1008B8000B1D5F2C602C572C662C8631CF2684317B
:1008C8000B08572C8531D22584318B170B178631AD
:1008D800F426843180315420843120000C086E2C99
:1008E80080313828F8007108F7007808F6008E2C57
:1008F8007708860087010108F5000130F4007408C4
:10090800F707760886008701750881000130F40032
:100918007408F6070130F2020030F33B720A031D37
:10092800992C730A031D992C9A2C7C2C0800200002
:10093800E400E501AE2C65087A07E3006308860049
:100948008701010884310324843101302000E30049
:100958006308E50764086502031CB32CB42C9F2CBC
:100968007908F1007A08F20064088331D0238431D1
:100978008431032484310800083020004A02031817
:10098800C62CC72CDF2C4B08303E86008701010897
:1009980023009A000130F00070082000CB070830CF
:1009A8004B02031CD82CD92CDA2CCB010130F000D7
:1009B8007008CA07E12C210011120800FA00200073
:1009C80056083F39F9005730F1000830F20000307E
:1009D800F3007A088431762484310030F100F20083
:1009E8000D30F3000030F40056308531192584317C
:1009F80079080800220090018C018D018E010830D1
:100A080021009000FB308C00FF308D00BB308E0041
:100A18003F3023008D002A308C00240090018D0186
:100A28002100951722009D010800F7007708F600BD
:100A3800262D760886008701710881000130F500AF
:100A48007508F6070130F3020030F43B730A031D02
:100A5800312D740A031D312D322D1D2D0800F8008B
:100A6800F101F10A78088231EF228531023A031D3B
:100A78003E2D3F2D412D00304C2D78083F398131D6
:100A8800FE2185317806031D4A2D4B2D3F2D01305F
:100A980008008431FE24853186312B268531863144
:100AA800CB26853186311E26853186314C26853107
:100AB8008531AB258531833159238531863111261E
:100AC800853108007C08283E860087012300190824
:100AD80081000130F0007008FC0708307C02031C1C
:100AE800762D772D782DFC010130F000700820005C
:100AF800C90708007208F4007108F300F436F30C13
:100B0800F436F30C73082500910071080339F300DB
:100B18000430F335890B8D2D1308CF3973049300F6
:100B28000800F70074082000C5007308C40077089F
:100B3800D2007608C7007508C6008631A42685311C
:100B48008631AE268531863154268531080021004C
:100B58001508C03914389500063020009500063075
:100B6800CD000B118B16F730F1000630F2008631FC
:100B780080268531080084312B248531003A031DF5
:100B8800C62DC72DD02D8631F0268531891CCD2D57
:100B9800CE2DD02D0130D12D003008008631C2264F
:100BA8008531DB2D1F18D92DDA2DDB2DE02D230003
:100BB8009F1FDF2DE02DD62D9F1BE32DE42DD22D79
:100BC80008000B1120004D0895003E083F0403194A
:100BD800EE2DEF2DF42D3F088A003E080A008531DE
:100BE8000800F20072082000EE0000308631A926C5
:100BF800853100002000D101D10AD0010800013060
:100C0800F00070082000D0076E085002031C0D2E5B
:100C18000E2E102ED001D1010800C730F300863007
:100C2800F4007230F5000130F60001308531952569
:100C3800863108000C30250093009501803094001F
:100C48000130960092019101FC309E050800703039
:100C58002100990098012200960121001A1F352EC3
:100C6800362E312E08000030200091180130F10096
:100C780071080319402E412E422E911008002000C1
:100C88004908031D482E4A2E01304B2E003008001B
:100C98007C3020009B009A01911007309C000800CE
:100CA8000330F1000630F2008631802686310800D4
:100CB8003230F1000030F20085317E25863108009F
:100CC800F430F1000130F20085317E2586310800CC
:100CD8000030F100F20085317E25863108000030B1
:100CE800F100F20085317E2586310800640080011C
:100CF8000131890B7B2E003472082000BF00710877
:100D0800BE00080072082000C3007108C200080075
:100D180072082000C1007108C00008007208200095
:100D2800BB007108BA00080072082000BD007108F5
:100D3800BC00080072082000B9007108B80008005B
:100D480000002000D001D1010800F1007108200046
:100D58009500080023001D162100911608002300A5
:100D68001D12210091120800F100710820009A005C
:100D78000800F100710820009B00080023009F1361
:100D88001F149F140800013401340834A0341630AD
:100D980021009700080020004D0895000800230056
:100DA8001D121D16080085316625863108002200AF
:100DB8000C15080022000C11080020001C11080066
:100DC80020001C15080020001A080800200015083B
:100DD800080023001E0808002000480808000A34FC
:0A0DE80008000800080008000800D9
:020000040001F9
:04000E00E43FFF1FAD
:00000001FF
