:020000040000FA
:0400000080313828EB
:100008007E1480318B1E09280A2812280B1D0D2802
:100018000E28122885318025803136280B1F152897
:10002800162836282100111E1A281B2826282000E9
:10003800111E1F282028262843088A0042080A0083
:10004800803136282100911E2A282B2836282000A6
:10005800911E2F283028362841088A0040080A00B7
:10006800803136287E10090080313A28863165268D
:100078008031EE00FB01FC01203084000030850057
:10008800433086310E268031A03084000030850050
:10009800083086310E2680317E10200085319E2D55
:1000A80020005303031D59285A2848295108031DC5
:1000B8005E285F2848290830CF0048298531DE2589
:1000C8008031003A031969286A287129143085316A
:1000D800C52580312000D301D30ACF01CF0A712969
:1000E8008531DE258031003A03197B287C28712967
:1000F80085316D258031013A031D8328842888289D
:1001080002302000CF00712908302000CF0071296B
:100118008531DE258031003A031993289428712906
:100128008331FE238031553A031D9B289C2888285B
:1001380003302000CF0071298531DE258031003A57
:100148000319A728A82871298331FE2380312000AC
:10015800D60056088431E1248031003A031DB528C1
:10016800B628B7288828F101F10A200056088231FC
:10017800632280312000E0006003031DC428C528E5
:10018800D0280230F10056088231632280312000E5
:10019800E1000430CF0071298631472680310630CE
:1001A8002000CF0071298531DE258031003A0319FE
:1001B800DE28DF2871298331FE2380312100A80041
:1001C80020004E08573E860087012100280881003C
:1001D8000130A80028082000CE0761084E02031C41
:1001E800F628F7287129CE010530CF00712985310D
:1001F800DE258031003A0319022903297129833148
:10020800FE2380312000DF005608F1005730F2004D
:1002180061088331A323803120005F060319152963
:100228001629172988280730CF0071292000560879
:100238008131F821803107302000CF0020004708A5
:100248008A0046080A00813186313826803120002C
:10025800CE01D3010030F100F2000D30F300003080
:10026800F40056308431C724803123009E1C3D2978
:100278003E2944298631422680312000CF01712948
:1002880009302000CF0071294F082100A800A901DA
:100298002908003A0319512971292808003A031935
:1002A8006228013A03197428033A03198C28013A81
:1002B8000319A028073A0319D728013A0319FB287C
:1002C800033A03191A29013A031922290F3A031983
:1002D8002829013A0319392971290800F2007208FE
:1002E800F300F31878297A2901307B290030F100CE
:1002F80073187F2981290130822900307106031D76
:100308008629882973178929731373198C298E29CB
:1003180001308F290030F100731B93299529013092
:10032800962900307106031D9A299C2973179D2967
:100338007313731AA029A2290130A3290030F100F0
:10034800731BA729A9290130AA2900307106031DAA
:10035800AE29B0297317B1297313F319B429B62933
:100368000130B7290030F100F318BB29BD2901304D
:10037800BE2900307106031DC229C429F317C529F7
:10038800F313731AC829CA290130CB290030F100A8
:10039800F31BCF29D1290130D22900307106031D62
:1003A800D629D829F317D929F313F31ADC29DE291A
:1003B8000130DF290030F100F31BE329E529013082
:1003C800E62900307106031DEA29EC29F317ED2907
:1003D800F3130310F31F03140318F329F529F31774
:1003E800F629F313730808002000EA004508ED0019
:1003F8004408EC003F30E6006608EA05EB01172ADE
:100408006C0884006D08850000086A06031D0D2A23
:100418000E2A0F2A1D2A0430EC070030ED3D01306A
:10042800E6006608EB0752086B02031C1C2A1D2A0B
:10043800042A6D08E7006C08E600013066078400AE
:1004480067080318670A85000008E0006D08E700E0
:100458006C08E60002306607840067080318670A1C
:1004680085000008E1006D08E7006C08E60003302D
:100478006607840067080318670A85000008F1000A
:100488006108E800E9016808F2006908F3005730DC
:1004980084312424813120005608F1005730F200BD
:1004A80061088331A32381312000DF005608F90059
:1004B8005730FA0061088431492481310800F4007A
:1004C80020004508F7004408F6003F30F2007208A3
:1004D800F405F501922A760884007708850000085B
:1004E8007406031D782A792A7A2AB92A0430F6076D
:1004F8000030F73D5208FF3EF200FF30031800308D
:10050800F300750872067304031D8B2A8C2A8E2A41
:100518000230CC2A0130F2007208F5075208750241
:10052800031C972A982A6F2AB92A76088400770824
:1005380085000008CC2A7708F3007608F20001301D
:100548007207840073080318730A85000008CC2A10
:100558007708F3007608F200023072078400730807
:100568000318730A85000008CC2A7108F200F30109
:100578007308003A0319C12A8C2A7208003A031931
:10058800992A013A03199F2A033A0319AC2A8C2A9B
:10059800080064308431902482312000EC00D501B9
:1005A800D401072BE51FD92ADA2ADD2AD515D41557
:1005B800E32A651FE02AE12AE32A5517D415651EA8
:1005C800E62AE72AE92A5516D416E51EEC2AED2A6A
:1005D800EF2AD5165417661FF22AF32AF42A541460
:1005E800E81DF72AF82AF92A541503306805E300AC
:1005F80003306306031D012B022B0C2BD4140C2B88
:10060800D501D4010C2B6C08013A0319D62A042B06
:10061800541C0F2B102B142B8531FF2582311F2BD7
:10062800D41C172B182B1C2B8531F72582311F2B37
:100638008631072682312000D41D232B242B282B1A
:1006480086315C2682312B2B86315F268231080069
:10065800210091126A30F1000330F2008631202621
:100668008331210011126E30F1000430F20086311E
:100678001A268331093023009F0090309D002430D2
:100688009E00FF309B0002309C006730F10006306E
:10069800F20086312C2683315430F1000630F20006
:1006A8008631262683315830F1000630F200863133
:1006B800322683312000C801CC01CB010830CA00A2
:1006C800FC01FB01C9012100911608007C08203EAD
:1006D80086008701810123001D1D732B742B7F2B3E
:1006E8007C08203E86008701811420003D088A008E
:1006F8003C080A00833123009D1C832B842B8F2BFD
:100708007C08203E86008701011520003B088A00EE
:100718003A080A0083317C08203E860087010108D8
:100728000319972B982B9F2B200039088A0038082B
:100738000A008331A22B8531142583310800F50086
:100748007108F300F4017308F7007408F800F60163
:10075800CC2B72088600870101087707F700780814
:100768000318780AF8000130F3007308F207013023
:100778007802003003197702031CC32BC42BC82B43
:10078800FF30F7020030F83B0130F3007308F6073A
:1007980075087602031CD12BD22BAD2BF709F8096B
:1007A80077080800F20020004A080319DC2BDD2B2B
:1007B800D72B2100111AE12BE22BE62B720823001C
:1007C8009A00FB2B111220004C08303E860087014E
:1007D800720881000130F1007108CC0708304C0222
:1007E800031CF72BF82BF92BCC010130CA0221008E
:1007F80011160800200049080319032C042CFE2BAD
:100808007B08203E860087010108C8007B08283E37
:10081800860087010108F2000130F1007108FB072A
:1008280008307B02031C192C1A2C1B2CFB012100FD
:10083800911201302000C9022100911672080800A7
:10084800F8007108F7007808F6003C2C7708860055
:1008580087010108F5000130F4007408F7077608ED
:1008680086008701750881000130F4007408F607D6
:100878000130F2020030F33B720A031D472C730A61
:10088800031D472C482C2A2C08002000E400E50111
:100898005C2C65087A07E300630886008701010875
:1008A8008331D623843101302000E3006308E50753
:1008B80064086502031C612C622C4D2C7908F10038
:1008C8007A08F20064088331A32384318331D62364
:1008D80084310800083020004A020318742C752C53
:1008E8008D2C4B08303E86008701010823009A00B2
:1008F8000130F00070082000CB0708304B02031CC1
:10090800862C872C882CCB010130F0007008CA0790
:100918008F2C210011120800FA00200056083F39D8
:10092800F9005730F1000830F2000030F3007A087F
:100938008431242484310030F100F2000D30F300BA
:100948000030F40056308431C72484317908080017
:10095800220090018C018D018E0108302100900049
:10096800FB308C00FF308D00BB308E003F30230001
:100978008D002E308C00240090018D0121009517E8
:1009880022009D010800F7007708F600D42C7608AD
:1009980086008701710881000130F5007508F607A7
:1009A8000130F3020030F43B730A031DDF2C740A94
:1009B800031DDF2CE02CCB2C0800F800F101F10A14
:1009C8007808823163228431023A031DEC2CED2C25
:1009D800EF2C0030FA2C78083F39813172218431AC
:1009E8007806031DF82CF92CED2C01300800843111
:1009F800AC2484318531D225843186315026843126
:100A08008531B82584318531E725843185315925EB
:100A1800843183312C2384318531AB25843108001E
:100A28007C08283E860087012300190881000130D0
:100A3800F0007008FC0708307C02031C242D252DCB
:100A4800262DFC010130F00070082000C9070800BD
:100A58007208F4007108F300F436F30CF436F30C62
:100A680073082500910071080339F3000430F33549
:100A7800890B3B2D1308CF39730493000800F70046
:100A880074082000C5007308C4007708D2007608EF
:100A9800C7007508C600863138268531863142265A
:100AA80085318531EF258531080021001508C039C9
:100AB800143895000630200095000630CD000B1143
:100AC8008B166630F1000630F20086311426853127
:100AD80008008331FE238531003A031D742D752DDE
:100AE8007E2D863162268531891C7B2D7C2D7E2DBD
:100AF80001307F2D003008000B1120004D089500B3
:100B08003E083F040319892D8A2D8F2D3F088A003E
:100B18003E080A00853108000130F0007008200006
:100B2800D0076E085002031C9A2D9B2D9D2DD001D5
:100B3800D10108008431FB2485318B170B178031D4
:100B48005420853120000C08A32D803138284C30E2
:100B5800F3008630F400CD30F5000230F6000130A5
:100B680085314325853108000C3025009300950117
:100B7800803094000130960092019101FC309E056E
:100B88000800F20072082000EE00003086313D2691
:100B9800853100002000D101D10A08007030210001
:100BA800990098012200960121001A1FDC2DDD2DE5
:100BB800D82D080020004908031DE32DE52D01303C
:100BC800E62D003008007C3020009B009A0191102F
:100BD80007309C0008009030F1000530F2008631A3
:100BE8001426853108003230F1000030F2008531DA
:100BF8002C2585310800F430F1000130F2008531F0
:100C08002C25853108000030F100F20085312C25B3
:100C180086310800640080010131890B0F2E0034F1
:100C280072082000BF007108BE000800720820008A
:100C3800C3007108C200080072082000C1007108D2
:100C4800C000080072082000BB007108BA00080044
:100C580072082000BD007108BC000800720820005E
:100C6800B9007108B800080000002000D001D101C7
:100C78000800F100710820009500080023001D16E7
:100C880021009116080023001D122100911208006E
:100C9800013401340834A0341630210097000800CC
:100CA80023001D121D160800853114258631080001
:100CB80022000C15080022000C110800200048082A
:080CC80008000A3408000800CE
:020000040001F9
:04000E00E43FFF1FAD
:00000001FF
