:0400000080313828EB
:100008007E1480318B1E09280A2812280B1D0D2802
:100018000E2812288531CC25803136280B1F15284B
:10002800162836282100111E1A281B2826282000E9
:10003800111E1F282028262843088A0042080A0083
:10004800803136282100911E2A282B2836282000A6
:10005800911E2F283028362841088A0040080A00B7
:10006800803136287E10090080313A288631B6263C
:100078008031EE00FB01FC01203084000030850057
:10008800433086315F268031A030840000308500FF
:10009800083086315F2680317E10200086311D2E83
:1000A80020005303031D59285A2848295108031DC5
:1000B8005E285F2848290830CF004829863128263D
:1000C8008031003A031969286A2871291430863169
:1000D800042680312000D301D30ACF01CF0A712929
:1000E800863128268031003A03197B287C2871291B
:1000F8008531B9258031013A031D83288428882851
:1001080002302000CF00712908302000CF0071296B
:10011800863128268031003A0319932894287129BA
:1001280084314A248031553A031D9B289C2888280D
:1001380003302000CF007129863128268031003A0B
:100148000319A728A828712984314A24803120005E
:10015800D600560885312D258031003A031DB52873
:10016800B628B7288828F101F10A200056088331FB
:100178000E2380312000E0006003031DC428C52839
:10018800D0280230F100560883310E238031200038
:10019800E1000430CF00712986319826803106307D
:1001A8002000CF007129863128268031003A0319B2
:1001B800DE28DF28712984314A2480312100A800F3
:1001C80020004E08573E860087012100280881003C
:1001D8000130A80028082000CE0761084E02031C41
:1001E800F628F7287129CE010530CF00712986310C
:1001F80028268031003A03190229032971298431FC
:100208004A2480312000DF005608F1005730F20000
:1002180061088331EF23803120005F060319152917
:100228001629172988280730CF0071292000560879
:100238008231A322803107302000CF0020004708F8
:100248008A0046080A0081318631892680312000DB
:10025800CE01D3010030F100F2000D30F300003080
:10026800F400563085311325803123009E1C3D292A
:100278003E2944298631932680312000CF017129F7
:1002880009302000CF0071294F082100A800A901DA
:100298002908003A0319512971292808003A031935
:1002A8006228013A03197428033A03198C28013A81
:1002B8000319A028073A0319D728013A0319FB287C
:1002C800033A03191A29013A031922290F3A031983
:1002D8002829013A03193929712908006430843121
:1002E800DC2481312000E300D501D401F429493010
:1002F8006606031980298129872951306606031D5E
:10030800862987298B29F830D5055414D7290A302E
:1003180066060319902991299D2914306606031948
:10032800962997299D2912306606031D9C299D2927
:10033800A3295508F8390138D500D414D7298C30A9
:1003480066060319A829A929B52994306606031950
:10035800AE29AF29B529AC306606031DB429B529E5
:10036800BB295508F8390338D5005415A1294C3054
:100378006606031DC029C129C6295508F83902385F
:10038800D50089290B3066060319CB29CC29D22937
:1003980013306606031DD129D229D7295508F83903
:1003A8000438D500B929E51FDA29DB29DE29D51556
:1003B800D415E429651FE129E229E4295517D41544
:1003C800651EE729E829EA295516D416E51EED2900
:1003D800EE29F929D5165417F929D501D401F92997
:1003E8006308013A03197B29F129541CFC29FD29CA
:1003F800012A863149268131042A863158268131DD
:100408002000D41C082A092A0D2A86314126813168
:10041800102A8631512681312000D41D142A152A2C
:10042800192A8631AD2681311C2A8631B0268131C0
:100438000800F2007208F300F318232A252A013075
:10044800262A0030F10073182A2A2C2A01302D2A76
:1004580000307106031D312A332A7317342A7313A7
:100468007319372A392A01303A2A0030F100731BF0
:100478003E2A402A0130412A00307106031D452AD0
:10048800472A7317482A7313731A4B2A4D2A0130C7
:100498004E2A0030F100731B522A542A0130552A83
:1004A80000307106031D592A5B2A73175C2A7313DF
:1004B800F3195F2A612A0130622A0030F100F3182B
:1004C800662A682A0130692A00307106031D6D2AE0
:1004D8006F2AF317702AF313731A732A752A0130D7
:1004E800762A0030F100F31B7A2A7C2A01307D2A13
:1004F80000307106031D812A832AF317842AF31317
:10050800F31A872A892A01308A2A0030F100F31B5E
:100518008E2A902A0130912A00307106031D952AEF
:10052800972AF317982AF3130310F31F03140318D9
:100538009E2AA02AF317A12AF313730808002000A3
:10054800EA004508ED004408EC003F30E600660884
:10055800EA05EB01C22A6C0884006D0885000008D2
:100568006A06031DB82AB92ABA2AC82A0430EC0731
:100578000030ED3D0130E6006608EB0752086B02DB
:10058800031CC72AC82AAF2A6D08E7006C08E600D2
:1005980001306607840067080318670A85000008A9
:1005A800E0006D08E7006C08E6000230660784008A
:1005B80067080318670A85000008E1006D08E7006E
:1005C8006C08E60003306607840067080318670AAA
:1005D80085000008F1006108E800E9016808F200F8
:1005E8006908F3005730843170248231200056089E
:1005F800F1005730F20061088331EF238231200087
:10060800DF005608F9005730FA0061088431952454
:1006180082310800F40020004508F7004408F6007D
:100628003F30F2007208F405F5013D2B760884008E
:100638007708850000087406031D232B242B252B1F
:10064800642B0430F6070030F73D5208FF3EF200F5
:10065800FF3003180030F300750872067304031D99
:10066800362B372B392B0230772B0130F2007208EA
:10067800F50752087502031C422B432B1A2B642BD7
:1006880076088400770885000008772B7708F30040
:100698007608F20001307207840073080318730AA1
:1006A80085000008772B7708F3007608F2000230FF
:1006B8007207840073080318730A85000008772BF3
:1006C8007108F200F3017308003A03196C2B372BF9
:1006D8007208003A0319442B013A03194A2B033ACA
:1006E8000319572B372B080021009112B630F1005F
:1006F8000330F20086317126833121001112BA309D
:10070800F1000430F20086316B2683310930230072
:100718009F0090309D0024309E00FF309B000230E7
:100728009C00B830F1000630F20086317D26833116
:10073800A530F1000630F200863177268331A930E2
:10074800F1000630F2008631832683312000C9018A
:10075800CD01CC010830CB00FC01FB01CA0121000E
:10076800911608007C08203E86008701810123003D
:100778001D1DBF2BC02BCB2B7C08203E860087017C
:10078800811420003F088A003E080A0083312300B4
:100798009D1CCF2BD02BDB2B7C08203E86008701AD
:1007A800011520003D088A003C080A0083317C08B6
:1007B800203E8600870101080319E32BE42BEB2B6D
:1007C80020003B088A003A080A008331EE2B853165
:1007D800602583310800F5007108F300F4017308FF
:1007E800F7007408F800F601182C720886008701D3
:1007F80001087707F70078080318780AF80001302D
:10080800F3007308F2070130780200300319770209
:10081800031C0F2C102C142CFF30F7020030F83B6F
:100828000130F3007308F60775087602031C1D2CC7
:100838001E2CF92BF709F80977080800F2002000A8
:100848004B080319282C292C232C2100111A2D2C94
:100858002E2C322C720823009A00472C11122000EB
:100868004D08303E86008701720881000130F10092
:100878007108CD0708304D02031C432C442C452C2D
:10088800CD010130CB0221001116080020004A08D2
:1008980003194F2C502C4A2C7B08203E86008701D8
:1008A8000108C9007B08283E860087010108F2007C
:1008B8000130F1007108FB0708307B02031C652C2E
:1008C800662C672CFB012100911201302000CA021E
:1008D8002100911672080800F8007108F7007808DE
:1008E800F600882C7708860087010108F50001309A
:1008F800F4007408F70776088600870175088100F8
:100908000130F4007408F6070130F2020030F33BBE
:10091800720A031D932C730A031D932C942C762CB6
:1009280008002000E400E501A82C65087A07E30028
:10093800630886008701010884312224843101304C
:100948002000E3006308E50764086502031CAD2C7A
:10095800AE2C992C7908F1007A08F20064088331EA
:10096800EF238431843122248431080008302000A8
:100978004B020318C02CC12CD92C4C08303E8600E1
:100988008701010823009A000130F0007008200058
:10099800CC0708304C02031CD22CD32CD42CCC010D
:1009A8000130F0007008CB07DB2C21001112080081
:1009B800FA00200056083F39F9005730F100083096
:1009C800F2000030F3007A0884317024843100305A
:1009D800F100F2000D30F3000030F400563085319C
:1009E8001325843179080800220090018C018D01BB
:1009F8008E01083021009000FB308C00FF308D0004
:100A0800BB308E003F3023008D002E308C00240038
:100A180090018D012100951722009D010800F70023
:100A28007708F600202D7608860087017108810076
:100A38000130F5007508F6070130F3020030F43B89
:100A4800730A031D2B2D740A031D2B2D2C2D172D16
:100A58000800F800F101F10A780883310E23853186
:100A6800023A031D382D392D3B2D0030462D7808CC
:100A78003F3982311D2285317806031D442D452DCD
:100A8800392D013008008431F8248531863111264A
:100A980085318631A12685318531F7258531863125
:100AA800312685318531A5258531833178238531F6
:100AB8008531EA25853108007C08283E86008701B3
:100AC8002300190881000130F0007008FC07083085
:100AD8007C02031C702D712D722DFC010130F00079
:100AE80070082000CA0708007208F4007108F300B3
:100AF800F436F30CF436F30C7308250091007108F2
:100B08000339F3000430F335890B872D1308CF39E7
:100B1800730493000800F70074082000C5007308E8
:100B2800C4007708D2007608C7007508C600863169
:100B38008926853186319326853186313926853156
:100B4800080021001508C039143895000630200027
:100B580095000630C8000B118B16B730F10006302F
:100B6800F200863165268531080084314A248531B2
:100B7800003A031DC02DC12DCA2D8631B3268531FB
:100B8800891CC72DC82DCA2D0130CB2D0030080077
:100B98000B11200048089500380839040319D52D91
:100BA800D62DDB2D39088A0038080A00853108005F
:100BB8000130F00070082000D0076E085002031CB6
:100BC800E62DE72DE92DD001D10108009D30F30075
:100BD8008630F4007230F5000130F60001308531BE
:100BE8008F25853108000C30250093009501803051
:100BF80094000130960092019101FC309E05080096
:100C0800F20072082000EE00003086318E26863110
:100C180000002000D101D10A08007030210099009D
:100C280098012200960121001A1F1B2E1C2E172E38
:100C380008008531472586318B170B1780315420E2
:100C48008631222E8031382820004A08031D2D2E97
:100C58002F2E0130302E003008007C3020009B0001
:100C68009A01911007309C000800DC30F100053033
:100C7800F20086316526863108003130F1000030F7
:100C8800F2008531782586310800F330F100013013
:100C9800F20085317825863108000030F100F20035
:100CA80085317825863108000030F100F200853161
:100CB800782586310800640080010131890B602E97
:100CC800003472082000B9007108B80008007208E2
:100CD8002000C3007108C200080072082000C1008B
:100CE8007108C000080072082000BD007108BC002F
:100CF800080072082000BF007108BE0008007208D2
:100D08002000BB007108BA00080000002000D001D4
:100D1800D1010800F10071082000950008002300A7
:100D28001D1621009116080023001D1221009112A2
:100D38000800013401340834A0341630210097002B
:100D4800080023001D121D16080085316025863114
:100D5800080022000C15080022000C1108002000D1
:0A0D6800490808000A3408000800DA
:020000040001F9
:08000000FF3FFF3FFF3FFF3F00
:04000E00E43FFF1FAD
:00000001FF
